{
  "_format": "hh-sol-artifact-1",
  "contractName": "TodoList",
  "sourceName": "contracts/TodoList.sol",
  "abi": [
    {
      "anonymous": false,
      "inputs": [
        {
          "indexed": false,
          "internalType": "address",
          "name": "user",
          "type": "address"
        },
        {
          "indexed": false,
          "internalType": "uint32",
          "name": "id",
          "type": "uint32"
        },
        {
          "indexed": false,
          "internalType": "bool",
          "name": "completed",
          "type": "bool"
        }
      ],
      "name": "TaskCompleted",
      "type": "event"
    },
    {
      "anonymous": false,
      "inputs": [
        {
          "indexed": false,
          "internalType": "address",
          "name": "user",
          "type": "address"
        },
        {
          "indexed": false,
          "internalType": "uint32",
          "name": "id",
          "type": "uint32"
        },
        {
          "indexed": false,
          "internalType": "string",
          "name": "task",
          "type": "string"
        },
        {
          "indexed": false,
          "internalType": "bool",
          "name": "completed",
          "type": "bool"
        }
      ],
      "name": "TaskCreated",
      "type": "event"
    },
    {
      "anonymous": false,
      "inputs": [
        {
          "indexed": false,
          "internalType": "address",
          "name": "user",
          "type": "address"
        },
        {
          "indexed": false,
          "internalType": "uint32",
          "name": "id",
          "type": "uint32"
        }
      ],
      "name": "TaskRemoved",
      "type": "event"
    },
    {
      "anonymous": false,
      "inputs": [
        {
          "indexed": false,
          "internalType": "address",
          "name": "user",
          "type": "address"
        },
        {
          "indexed": false,
          "internalType": "uint32",
          "name": "id",
          "type": "uint32"
        },
        {
          "indexed": false,
          "internalType": "string",
          "name": "task",
          "type": "string"
        }
      ],
      "name": "TaskUpdated",
      "type": "event"
    },
    {
      "inputs": [
        {
          "internalType": "uint32",
          "name": "_id",
          "type": "uint32"
        }
      ],
      "name": "completeTask",
      "outputs": [],
      "stateMutability": "nonpayable",
      "type": "function"
    },
    {
      "inputs": [
        {
          "internalType": "string",
          "name": "_task",
          "type": "string"
        }
      ],
      "name": "createTask",
      "outputs": [],
      "stateMutability": "nonpayable",
      "type": "function"
    },
    {
      "inputs": [
        {
          "internalType": "uint32",
          "name": "_id",
          "type": "uint32"
        }
      ],
      "name": "getTask",
      "outputs": [
        {
          "components": [
            {
              "internalType": "uint32",
              "name": "id",
              "type": "uint32"
            },
            {
              "internalType": "string",
              "name": "task",
              "type": "string"
            },
            {
              "internalType": "bool",
              "name": "completed",
              "type": "bool"
            }
          ],
          "internalType": "struct TodoList.Task",
          "name": "",
          "type": "tuple"
        }
      ],
      "stateMutability": "view",
      "type": "function"
    },
    {
      "inputs": [],
      "name": "getTasks",
      "outputs": [
        {
          "components": [
            {
              "internalType": "uint32",
              "name": "id",
              "type": "uint32"
            },
            {
              "internalType": "string",
              "name": "task",
              "type": "string"
            },
            {
              "internalType": "bool",
              "name": "completed",
              "type": "bool"
            }
          ],
          "internalType": "struct TodoList.Task[]",
          "name": "",
          "type": "tuple[]"
        }
      ],
      "stateMutability": "view",
      "type": "function"
    },
    {
      "inputs": [
        {
          "internalType": "uint32",
          "name": "_id",
          "type": "uint32"
        }
      ],
      "name": "removeTask",
      "outputs": [],
      "stateMutability": "nonpayable",
      "type": "function"
    },
    {
      "inputs": [
        {
          "internalType": "uint32",
          "name": "_id",
          "type": "uint32"
        },
        {
          "internalType": "string",
          "name": "_task",
          "type": "string"
        }
      ],
      "name": "updateTask",
      "outputs": [],
      "stateMutability": "nonpayable",
      "type": "function"
    }
  ],
  "bytecode": "0x608060405234801561001057600080fd5b506114fc806100206000396000f3fe608060405234801561001057600080fd5b50600436106100625760003560e01c806304a87e3814610067578063111002aa14610085578063141908dc146100a157806357342d74146100bd57806378c01ecc146100ed578063fb2eefe614610109575b600080fd5b61006f610125565b60405161007c9190610c51565b60405180910390f35b61009f600480360381019061009a9190610dbc565b61033f565b005b6100bb60048036038101906100b69190610e31565b6104e7565b005b6100d760048036038101906100d29190610e31565b610609565b6040516100e49190610eae565b60405180910390f35b61010760048036038101906101029190610e31565b610754565b005b610123600480360381019061011e9190610ed0565b6108d8565b005b606060008060003373ffffffffffffffffffffffffffffffffffffffff1673ffffffffffffffffffffffffffffffffffffffff168152602001908152602001600020905060008160000160009054906101000a900463ffffffff1663ffffffff1667ffffffffffffffff81111561019f5761019e610c91565b5b6040519080825280602002602001820160405280156101d857816020015b6101c56109ef565b8152602001906001900390816101bd5790505b50905060005b8260000160009054906101000a900463ffffffff1663ffffffff168163ffffffff161015610336578260010160008263ffffffff1663ffffffff1681526020019081526020016000206040518060600160405290816000820160009054906101000a900463ffffffff1663ffffffff1663ffffffff16815260200160018201805461026890610f5b565b80601f016020809104026020016040519081016040528092919081815260200182805461029490610f5b565b80156102e15780601f106102b6576101008083540402835291602001916102e1565b820191906000526020600020905b8154815290600101906020018083116102c457829003601f168201915b505050505081526020016002820160009054906101000a900460ff161515151581525050828263ffffffff168151811061031e5761031d610f8c565b5b602002602001018190525080806001019150506101de565b50809250505090565b60008060003373ffffffffffffffffffffffffffffffffffffffff1673ffffffffffffffffffffffffffffffffffffffff168152602001908152602001600020905060405180606001604052808260000160009054906101000a900463ffffffff1663ffffffff168152602001838152602001600015158152508160010160008360000160009054906101000a900463ffffffff1663ffffffff1663ffffffff16815260200190815260200160002060008201518160000160006101000a81548163ffffffff021916908363ffffffff160217905550602082015181600101908161042a9190611171565b5060408201518160020160006101000a81548160ff02191690831515021790555090505080600001600081819054906101000a900463ffffffff168092919061047290611272565b91906101000a81548163ffffffff021916908363ffffffff160217905550507fa7d0b759bf26f6513d3003b275245c94411ef778bfa838b74af9e4e4e5f81c24338260000160009054906101000a900463ffffffff168460006040516104db9493929190611347565b60405180910390a15050565b60008060003373ffffffffffffffffffffffffffffffffffffffff1673ffffffffffffffffffffffffffffffffffffffff16815260200190815260200160002090508060000160009054906101000a900463ffffffff1663ffffffff168263ffffffff16111561058c576040517f08c379a0000000000000000000000000000000000000000000000000000000008152600401610583906113df565b60405180910390fd5b60018160010160008463ffffffff1663ffffffff16815260200190815260200160002060020160006101000a81548160ff0219169083151502179055507f305b92f28f62410f09f473993dbfe0c92503c26e435eb7530ecccc4019792812338360016040516105fd939291906113ff565b60405180910390a15050565b6106116109ef565b6000803373ffffffffffffffffffffffffffffffffffffffff1673ffffffffffffffffffffffffffffffffffffffff16815260200190815260200160002060010160008363ffffffff1663ffffffff1681526020019081526020016000206040518060600160405290816000820160009054906101000a900463ffffffff1663ffffffff1663ffffffff1681526020016001820180546106b090610f5b565b80601f01602080910402602001604051908101604052809291908181526020018280546106dc90610f5b565b80156107295780601f106106fe57610100808354040283529160200191610729565b820191906000526020600020905b81548152906001019060200180831161070c57829003601f168201915b505050505081526020016002820160009054906101000a900460ff1615151515815250509050919050565b60008060003373ffffffffffffffffffffffffffffffffffffffff1673ffffffffffffffffffffffffffffffffffffffff16815260200190815260200160002090508060000160009054906101000a900463ffffffff1663ffffffff168263ffffffff1611156107f9576040517f08c379a00000000000000000000000000000000000000000000000000000000081526004016107f0906113df565b60405180910390fd5b8060010160008363ffffffff1663ffffffff168152602001908152602001600020600080820160006101000a81549063ffffffff02191690556001820160006108429190610a18565b6002820160006101000a81549060ff0219169055505080600001600081819054906101000a900463ffffffff168092919061087c90611436565b91906101000a81548163ffffffff021916908363ffffffff160217905550507f093ec1db2076a4e06619efd6265fdc2c7a9cc0f6d73157de0a333d9bd2d8c4c633836040516108cc92919061145f565b60405180910390a15050565b60008060003373ffffffffffffffffffffffffffffffffffffffff1673ffffffffffffffffffffffffffffffffffffffff16815260200190815260200160002090508060000160009054906101000a900463ffffffff1663ffffffff168363ffffffff16111561097d576040517f08c379a0000000000000000000000000000000000000000000000000000000008152600401610974906113df565b60405180910390fd5b818160010160008563ffffffff1663ffffffff16815260200190815260200160002060010190816109ae9190611171565b507f31f28fbb387297388552bfd88f65209281a5115b4c1eb23cabe8f3c36643624d3384846040516109e293929190611488565b60405180910390a1505050565b6040518060600160405280600063ffffffff168152602001606081526020016000151581525090565b508054610a2490610f5b565b6000825580601f10610a365750610a55565b601f016020900490600052602060002090810190610a549190610a58565b5b50565b5b80821115610a71576000816000905550600101610a59565b5090565b600081519050919050565b600082825260208201905092915050565b6000819050602082019050919050565b600063ffffffff82169050919050565b610aba81610aa1565b82525050565b600081519050919050565b600082825260208201905092915050565b60005b83811015610afa578082015181840152602081019050610adf565b60008484015250505050565b6000601f19601f8301169050919050565b6000610b2282610ac0565b610b2c8185610acb565b9350610b3c818560208601610adc565b610b4581610b06565b840191505092915050565b60008115159050919050565b610b6581610b50565b82525050565b6000606083016000830151610b836000860182610ab1565b5060208301518482036020860152610b9b8282610b17565b9150506040830151610bb06040860182610b5c565b508091505092915050565b6000610bc78383610b6b565b905092915050565b6000602082019050919050565b6000610be782610a75565b610bf18185610a80565b935083602082028501610c0385610a91565b8060005b85811015610c3f5784840389528151610c208582610bbb565b9450610c2b83610bcf565b925060208a01995050600181019050610c07565b50829750879550505050505092915050565b60006020820190508181036000830152610c6b8184610bdc565b905092915050565b6000604051905090565b600080fd5b600080fd5b600080fd5b600080fd5b7f4e487b7100000000000000000000000000000000000000000000000000000000600052604160045260246000fd5b610cc982610b06565b810181811067ffffffffffffffff82111715610ce857610ce7610c91565b5b80604052505050565b6000610cfb610c73565b9050610d078282610cc0565b919050565b600067ffffffffffffffff821115610d2757610d26610c91565b5b610d3082610b06565b9050602081019050919050565b82818337600083830152505050565b6000610d5f610d5a84610d0c565b610cf1565b905082815260208101848484011115610d7b57610d7a610c8c565b5b610d86848285610d3d565b509392505050565b600082601f830112610da357610da2610c87565b5b8135610db3848260208601610d4c565b91505092915050565b600060208284031215610dd257610dd1610c7d565b5b600082013567ffffffffffffffff811115610df057610def610c82565b5b610dfc84828501610d8e565b91505092915050565b610e0e81610aa1565b8114610e1957600080fd5b50565b600081359050610e2b81610e05565b92915050565b600060208284031215610e4757610e46610c7d565b5b6000610e5584828501610e1c565b91505092915050565b6000606083016000830151610e766000860182610ab1565b5060208301518482036020860152610e8e8282610b17565b9150506040830151610ea36040860182610b5c565b508091505092915050565b60006020820190508181036000830152610ec88184610e5e565b905092915050565b60008060408385031215610ee757610ee6610c7d565b5b6000610ef585828601610e1c565b925050602083013567ffffffffffffffff811115610f1657610f15610c82565b5b610f2285828601610d8e565b9150509250929050565b7f4e487b7100000000000000000000000000000000000000000000000000000000600052602260045260246000fd5b60006002820490506001821680610f7357607f821691505b602082108103610f8657610f85610f2c565b5b50919050565b7f4e487b7100000000000000000000000000000000000000000000000000000000600052603260045260246000fd5b60008190508160005260206000209050919050565b60006020601f8301049050919050565b600082821b905092915050565b60006008830261101d7fffffffffffffffffffffffffffffffffffffffffffffffffffffffffffffffff82610fe0565b6110278683610fe0565b95508019841693508086168417925050509392505050565b6000819050919050565b6000819050919050565b600061106e6110696110648461103f565b611049565b61103f565b9050919050565b6000819050919050565b61108883611053565b61109c61109482611075565b848454610fed565b825550505050565b600090565b6110b16110a4565b6110bc81848461107f565b505050565b5b818110156110e0576110d56000826110a9565b6001810190506110c2565b5050565b601f821115611125576110f681610fbb565b6110ff84610fd0565b8101602085101561110e578190505b61112261111a85610fd0565b8301826110c1565b50505b505050565b600082821c905092915050565b60006111486000198460080261112a565b1980831691505092915050565b60006111618383611137565b9150826002028217905092915050565b61117a82610ac0565b67ffffffffffffffff81111561119357611192610c91565b5b61119d8254610f5b565b6111a88282856110e4565b600060209050601f8311600181146111db57600084156111c9578287015190505b6111d38582611155565b86555061123b565b601f1984166111e986610fbb565b60005b82811015611211578489015182556001820191506020850194506020810190506111ec565b8683101561122e578489015161122a601f891682611137565b8355505b6001600288020188555050505b505050505050565b7f4e487b7100000000000000000000000000000000000000000000000000000000600052601160045260246000fd5b600061127d82610aa1565b915063ffffffff820361129357611292611243565b5b600182019050919050565b600073ffffffffffffffffffffffffffffffffffffffff82169050919050565b60006112c98261129e565b9050919050565b6112d9816112be565b82525050565b6112e881610aa1565b82525050565b600082825260208201905092915050565b600061130a82610ac0565b61131481856112ee565b9350611324818560208601610adc565b61132d81610b06565b840191505092915050565b61134181610b50565b82525050565b600060808201905061135c60008301876112d0565b61136960208301866112df565b818103604083015261137b81856112ff565b905061138a6060830184611338565b95945050505050565b7f5461736b20646f6573206e6f7420657869737400000000000000000000000000600082015250565b60006113c96013836112ee565b91506113d482611393565b602082019050919050565b600060208201905081810360008301526113f8816113bc565b9050919050565b600060608201905061141460008301866112d0565b61142160208301856112df565b61142e6040830184611338565b949350505050565b600061144182610aa1565b91506000820361145457611453611243565b5b600182039050919050565b600060408201905061147460008301856112d0565b61148160208301846112df565b9392505050565b600060608201905061149d60008301866112d0565b6114aa60208301856112df565b81810360408301526114bc81846112ff565b905094935050505056fea264697066735822122077bbdccd04363c96f14aef4d0a11baff8f6c3ec2e28d3f52841888ac288d346e64736f6c63430008180033",
  "linkReferences": {},
  "deployedLinkReferences": {}
}